:020000040800F2
:1000000000000220B1910008B97C0008BF7C000804
:10001000C57C0008CB7C0008D17C000800000000F3
:10002000000000000000000000000000C1520008B5
:10003000D77C00080000000001550008E57C00089E
:100040000192000801920008019200080192000844
:100050000192000801920008019200080192000834
:100060000192000801920008019200080192000824
:100070000192000801920008019200080192000814
:100080000192000801920008019200080192000804
:1000900001920008019200080192000801920008F4
:1000A00001920008019200080192000801920008E4
:1000B00001920008019200080192000801920008D4
:1000C00001920008019200080192000801920008C4
:1000D00001920008017D00080192000801920008C9
:1000E00001920008019200080192000801920008A4
:1000F0000192000801920008019200080192000894
:100100000192000801920008019200080192000883
:100110000192000801920008019200080192000873
:100120000192000801920008019200080192000863
:100130000192000800000000000000000192000889
:100140000192000801920008019200080192000843
:100150000192000801920008019200080192000833
:100160000192000801920008019200080192000823
:100170000192000801920008000000000000000049
:08018000019200080192000841
:1001900010B5054C237833B9044B13B10448AFF3C1
:1001A00000800123237010BD8406002000000000A1
:1001B00044D7000808B5034B1BB103490348AFF30C
:1001C000008008BD000000008806002044D7000819
:1001D00001F0FF01102A2BDB10F0070F08D010F8F8
:1001E000013B013A8B422DD010F0070F42B3F6D1FC
:1001F000F0B441EA012141EA014122F007047FF015
:1002000000070023F0E80256083C85EA010586EA6B
:10021000010685FA47F5A3FA87F586FA47F6A5FAA7
:1002200087F68EB9EED1F0BC01F0FF0102F00702B3
:1002300032B110F8013B013A83EA010313B1F8D15E
:100240000020704701387047002D06BF354603383F
:10025000073815F0010F07D1013015F4807F02BF78
:10026000013015F4C03F0130F0BC0138704700BFC9
:10027000034613F8012B002AFBD1181A01387047E6
:1002800081F0004102E000BF83F0004330B54FEA47
:1002900041044FEA430594EA050F08BF90EA020FB4
:1002A0001FBF54EA000C55EA020C7FEA645C7FEA47
:1002B000655C00F0E2804FEA5454D4EB5555B8BF6A
:1002C0006D420CDD2C4480EA020281EA030382EADB
:1002D000000083EA010180EA020281EA0303362D6D
:1002E00088BF30BD11F0004F4FEA01314FF4801C40
:1002F0004CEA113102D0404261EB410113F0004F52
:100300004FEA03334CEA133302D0524263EB430308
:1003100094EA050F00F0A780A4F10104D5F1200EA6
:100320000DDB02FA0EFC22FA05F2801841F1000101
:1003300003FA0EF2801843FA05F359410EE0A5F1D5
:1003400020050EF1200E012A03FA0EFC28BF4CF006
:10035000020C43FA05F3C01851EBE37101F00045BC
:1003600007D54FF0000EDCF1000C7EEB00006EEBC9
:100370000101B1F5801F1BD3B1F5001F0CD3490853
:100380005FEA30004FEA3C0C04F101044FEA4452AA
:1003900012F5800F80F09A80BCF1004F08BF5FEA31
:1003A000500C50F1000041EB045141EA050130BD11
:1003B0005FEA4C0C404141EB010111F4801FA4F1B4
:1003C0000104E9D191F0000F04BF01460020B1FA09
:1003D00081F308BF2033A3F10B03B3F120020CDA41
:1003E0000C3208DD02F1140CC2F10C0201FA0CF01F
:1003F00021FA02F10CE002F11402D8BFC2F1200C84
:1004000001FA02F120FA0CFCDCBF41EA0C01904039
:10041000E41AA2BF01EB0451294330BD6FEA040482
:100420001F3C1CDA0C340EDC04F11404C4F120026D
:1004300020FA04F001FA02F340EA030021FA04F37F
:1004400045EA030130BDC4F10C04C4F1200220FAD6
:1004500002F001FA04F340EA0300294630BD21FA14
:1004600004F0294630BD94F0000F83F4801306BFDA
:1004700081F480110134013D4EE77FEA645C18BFCE
:100480007FEA655C29D094EA050F08BF90EA020F65
:1004900005D054EA000C04BF1946104630BD91EA5D
:1004A000030F1EBF0021002030BD5FEA545C05D160
:1004B0004000494128BF41F0004130BD14F580049F
:1004C0003CBF01F5801130BD01F0004545F0FE4113
:1004D00041F470014FF0000030BD7FEA645C1ABF48
:1004E000194610467FEA655C1CBF0B46024650EA7F
:1004F000013406BF52EA033591EA030F41F40021AB
:1005000030BD00BF90F0000F04BF0021704730B530
:100510004FF4806404F132044FF000054FF0000105
:1005200050E700BF90F0000F04BF0021704730B5C6
:100530004FF4806404F1320410F0004548BF40429B
:100540004FF000013EE700BF42004FEAE2014FEAF0
:1005500031014FEA02701FBF12F07F4393F07F4FCB
:1005600081F06051704792F0000F14BF93F07F4FFD
:10057000704730B54FF4607401F0004521F0004140
:1005800020E700BF50EA010208BF704730B54FF0C6
:1005900000050AE050EA010208BF704730B511F0CB
:1005A000004502D5404261EB41014FF4806404F103
:1005B00032045FEA915C3FF4DCAE4FF003025FEA85
:1005C000DC0C18BF03325FEADC0C18BF033202EB0D
:1005D000DC02C2F1200300FA03FC20FA02F001FA67
:1005E00003FE40EA0E0021FA02F11444C1E600BF06
:1005F00070B54FF0FF0C4CF4E06C1CEA11541DBFB9
:100600001CEA135594EA0C0F95EA0C0F00F0DEF883
:100610002C4481EA030621EA4C5123EA4C5350EA68
:10062000013518BF52EA033541F4801143F48013B9
:1006300038D0A0FB02CE4FF00005E1FB02E506F04A
:100640000042E0FB03E54FF00006E1FB03569CF09F
:10065000000F18BF4EF0010EA4F1FF04B6F5007FA5
:1006600064F5407404D25FEA4E0E6D4146EB060617
:1006700042EAC62141EA55514FEAC52040EA5E50A0
:100680004FEACE2EB4F1FD0C88BFBCF5E06F1ED84A
:10069000BEF1004F08BF5FEA500E50F1000041EB81
:1006A000045170BD06F0004646EA010140EA02002E
:1006B00081EA0301B4EB5C04C2BFD4EB0C0541EA50
:1006C000045170BD41F480114FF0000E013C00F365
:1006D000AB8014F1360FDEBF002001F0004170BD89
:1006E000C4F10004203C35DA0C341BDC04F11404A2
:1006F000C4F1200500FA05F320FA04F001FA05F22E
:1007000040EA020001F0004221F0004110EBD370FA
:1007100021FA04F642EB06015EEA430E08BF20EA26
:10072000D37070BDC4F10C04C4F1200500FA04F3C9
:1007300020FA05F001FA04F240EA020001F000415B
:1007400010EBD37041F100015EEA430E08BF20EACE
:10075000D37070BDC4F1200500FA05F24EEA020E16
:1007600020FA04F301FA05F243EA020321FA04F045
:1007700001F0004121FA04F220EA020000EBD370FC
:100780005EEA430E08BF20EAD37070BD94F0000FFC
:100790000FD101F00046400041EB010111F4801F30
:1007A00008BF013CF7D041EA060195F0000F18BFE1
:1007B000704703F00046520043EB030313F4801F1D
:1007C00008BF013DF7D043EA0603704794EA0C0FD7
:1007D0000CEA135518BF95EA0C0F0CD050EA4106ED
:1007E00018BF52EA4306D1D181EA030101F000416A
:1007F0004FF0000070BD50EA410606BF1046194692
:1008000052EA430619D094EA0C0F02D150EA01369D
:1008100013D195EA0C0F05D152EA03361CBF1046DE
:1008200019460AD181EA030101F0004141F0FE417D
:1008300041F470014FF0000070BD41F0FE4141F401
:10084000780170BD70B54FF0FF0C4CF4E06C1CEA01
:1008500011541DBF1CEA135594EA0C0F95EA0C0FB6
:1008600000F0A7F8A4EB050481EA030E52EA033571
:100870004FEA013100F088804FEA03334FF0805592
:1008800045EA131343EA12634FEA022245EA1115BF
:1008900045EA10654FEA00260EF000419D4208BF70
:1008A000964244F1FD0404F5407402D25B084FEA1D
:1008B0003202B61A65EB03055B084FEA32024FF4C9
:1008C00080104FF4002CB6EB020E75EB030E22BF26
:1008D000B61A754640EA0C005B084FEA3202B6EBE6
:1008E000020E75EB030E22BFB61A754640EA5C0095
:1008F0005B084FEA3202B6EB020E75EB030E22BF25
:10090000B61A754640EA9C005B084FEA3202B6EB25
:10091000020E75EB030E22BFB61A754640EADC00E4
:1009200055EA060E18D04FEA051545EA16754FEA46
:1009300006164FEAC30343EA52734FEAC2025FEA64
:100940001C1CC0D111F4801F0BD141EA00014FF0F3
:1009500000004FF0004CB6E711F4801F04BF0143C4
:100960000020B4F1FD0C88BFBCF5E06F3FF6AFAEE0
:10097000B5EB030C04BFB6EB020C5FEA500C50F170
:10098000000041EB045170BD0EF0004E4EEA1131F3
:1009900014EB5C04C2BFD4EB0C0541EA045170BDFA
:1009A00041F480114FF0000E013C90E645EA060E3E
:1009B0008DE60CEA135594EA0C0F08BF95EA0C0F6C
:1009C0003FF43BAF94EA0C0F0AD150EA01347FF4B4
:1009D00034AF95EA0C0F7FF425AF104619462CE78B
:1009E00095EA0C0F06D152EA03353FF4FDAE1046EE
:1009F000194622E750EA410618BF52EA43067FF43F
:100A0000C5AE50EA41047FF40DAF52EA43057FF4CE
:100A1000EBAE12E74FF0FF3C06E000BF4FF0010CD9
:100A200002E000BF4FF0010C4DF804CD4FEA410C3D
:100A30007FEA6C5C4FEA430C18BF7FEA6C5C1BD00A
:100A400001B050EA410C0CBF52EA430C91EA030F8B
:100A500002BF90EA020F0020704710F1000F91EAE8
:100A6000030F58BF994208BF90422CBFD8176FEAB6
:100A7000E37040F0010070474FEA410C7FEA6C5C84
:100A800002D150EA013C07D14FEA430C7FEA6C5C8B
:100A9000D6D152EA033CD3D05DF8040B704700BFB7
:100AA0008446104662468C461946634600E000BF05
:100AB00001B5FFF7B7FF002848BF10F1000F01BDD7
:100AC0004DF808EDFFF7F4FF0CBF012000205DF8A2
:100AD00008FB00BF4DF808EDFFF7EAFF34BF012027
:100AE00000205DF808FB00BF4DF808EDFFF7E0FFC0
:100AF00094BF012000205DF808FB00BF4DF808ED11
:100B0000FFF7CEFF94BF012000205DF808FB00BF77
:100B10004DF808EDFFF7C4FF34BF012000205DF859
:100B200008FB00BF4FEA410C7FEA6C5C02D150EA3F
:100B3000013C0AD14FEA430C7FEA6C5C02D152EAD5
:100B4000033C02D14FF0000070474FF001007047A6
:100B50004FEA410212F5001215D211D56FF47873E5
:100B6000B3EB625212D94FEAC12343F0004343EA88
:100B7000505311F0004F23FA02F018BF4042704763
:100B80004FF00000704750EA013005D111F00040ED
:100B900008BF6FF0004070474FF00000704700BF83
:100BA0007BB972B90029BEBF00204FF0004106E0BA
:100BB00008BF00281CBF6FF000414FF0FF3000F06D
:100BC000C5B9ADF1080C6DE904CE002909DB002B95
:100BD0001ADB00F04DF8DDF804E0DDE9022304B093
:100BE0007047404261EB4101002B1BDB00F040F8F5
:100BF000DDF804E0DDE9022304B0404261EB41018D
:100C0000524263EB43037047524263EB430300F0ED
:100C10002FF8DDF804E0DDE9022304B0404261EB87
:100C200041017047524263EB430300F021F8DDF8C5
:100C300004E0DDE9022304B0524263EB4303704752
:100C400053B94AB9002908BF00281CBF4FF0FF3133
:100C50004FF0FF3000F07AB9ADF1080C6DE904CE29
:100C600000F006F8DDF804E0DDE9022304B0704787
:100C70002DE9F0478C460D460446089E002B51D1C5
:100C80008A4217466DD9B2FA82FEBEF1000F0BD030
:100C9000CEF1200C01FA0EF520FA0CFC02FA0EF748
:100CA0004CEA050C00FA0EF44FEA174A250CBCFB7F
:100CB000FAF81FFA87F90AFB18CC45EA0C4508FB3D
:100CC00009F3AB420AD9ED1908F1FF3280F0238114
:100CD000AB4240F22081A8F102083D44ED1AA4B2D3
:100CE000B5FBFAF00AFB105544EA054400FB09F98C
:100CF000A14509D9E41900F1FF3380F00A81A1452B
:100D000040F2078102383C44A4EB090440EA084061
:100D10000021002E61D024FA0EF4002334607360A9
:100D2000BDE8F0878B4207D9002E54D0002186E819
:100D300021000846BDE8F087B3FA83F1002940F0AE
:100D40008E80AB4202D3824200F2FA80841A65EBB5
:100D500003050120AC46002E3FD086E81010BDE808
:100D6000F08712B90127B7FBF2F7B7FA87FEBEF199
:100D7000000F34D1EB1B3A0C1FFA87FC0121B3FBA7
:100D8000F2F8250C02FB183345EA03450CFB08F387
:100D9000AB4207D9ED1908F1FF3002D2AB4200F2A5
:100DA000D1808046ED1AA3B2B5FBF2F002FB1055DC
:100DB00043EA05440CFB00FCA44507D9E41900F103
:100DC000FF3302D2A44500F2B8801846A4EB0C040D
:100DD00040EA08409DE731463046BDE8F087CEF155
:100DE000200405FA0EF307FA0EF720FA04F83A0C7D
:100DF00025FA04F448EA0308B4FBF2F14FEA184577
:100E000002FB11441FFA87FC45EA044501FB0CF381
:100E1000AB4200FA0EF409D9ED1901F1FF3080F070
:100E20008A80AB4240F2878002393D44EB1A1FFAB8
:100E300088F5B3FBF2F002FB103345EA034500FBF3
:100E40000CF3AB4207D9ED1900F1FF386FD2AB427A
:100E50006DD902383D44EB1A40EA01418FE7C1F1F8
:100E6000200722FA07F88B4005FA01F448EA030349
:100E700020FA07FE4FEA134CFD404EEA040EB5FB84
:100E8000FCF94FEA1E440CFB19551FFA83F844EA9B
:100E9000054509FB08F4AC4202FA01F200FA01FA36
:100EA00008D9ED1809F1FF3043D2AC4241D9A9F17C
:100EB00002091D442D1B1FFA8EFEB5FBFCF00CFB36
:100EC00010554EEA054400FB08F8A04507D9E41880
:100ED00000F1FF3529D2A04527D902381C4440EA49
:100EE0000940A4EB0804A0FB02894C45C6464D46C8
:100EF00015D312D056B1BAEB0E0364EB050404FA15
:100F000007F7CB401F43CC40376074600021BDE839
:100F1000F0871846F8E69046E0E6C245EAD2B8EB1C
:100F2000020E69EB03050138E4E72846D7E740469F
:100F300091E78146BEE7014678E702383C4445E741
:100F4000084608E7A8F102083D442BE7704700BFB8
:100F500080B500AF0E4A0E4B1B6843F4007313605C
:100F60000B4A0B4B1B6843F480631360084A084B21
:100F70001B6843F480731360032000F087FC0F208C
:100F800000F008F806F012FB0023184680BD00BFF1
:100F9000003C024080B582B000AF7860124B1A6806
:100FA000124B1B7819464FF47A73B3FBF1F3B2FB83
:100FB000F3F3184600F09FFC0346002B01D00123F9
:100FC0000EE07B680F2B0AD8002279684FF0FF30C3
:100FD00000F067FC064A7B681360002300E00123F1
:100FE00018460837BD4680BD1000002004000020D0
:100FF0000000002080B400AF064B1B781A46064B59
:101000001B681344044A136000BFBD465DF8047BAF
:10101000704700BF04000020C00B002080B400AF68
:10102000034B1B681846BD465DF8047B704700BF44
:10103000C00B002080B584B000AF78600023FB7344
:101040007B68002B01D1012333E07B681B6C002BF4
:1010500009D1786806F0D6FA7B6800225A647B686A
:10106000002283F83C207B681B6C03F01003002BEC
:1010700018D17B681B6C23F4885323F0020343F0E0
:1010800002027B681A64786800F03CF97B680022F1
:101090005A647B681B6C23F0030343F001027B68F6
:1010A0001A6401E00123FB737B68002283F83C2073
:1010B000FB7B18461037BD4680BD000090B484B05D
:1010C00000AF786039600023BB607B6893F83C30E8
:1010D000012B01D1022307E17B68012283F83C2028
:1010E0003B681B68092B26D97B681A687B681B68DC
:1010F000D9683B681B689BB2184603465B000344F3
:101100001E3B072000FA03F3DB430B40D3607B68F0
:101110001A687B681B68D9683B6898683B681B68DD
:101120009BB21C4623465B0023441E3B00FA03F39C
:101130000B43D36023E07B681A687B681B681969DE
:101140003B681B689BB2184603465B0003440720BC
:1011500000FA03F3DB430B4013617B681A687B687A
:101160001B6819693B6898683B681B689BB21C4602
:1011700023465B00234400FA03F30B4313613B68EF
:101180005B68062B24D87B6819687B681B68586BE2
:101190003B685A6813469B001344053B1F2202FA22
:1011A00003F3DB4303404B637B6819687B681B6870
:1011B000586B3B681B689BB21C463B685A681346D9
:1011C0009B001344053B04FA03F303434B634CE0D9
:1011D0003B685B680C2B24D87B6819687B681B68AC
:1011E000186B3B685A6813469B001344233B1F222D
:1011F00002FA03F3DB4303400B637B6819687B68E7
:101200001B68186B3B681B689BB21C463B685A689E
:1012100013469B001344233B04FA03F303430B637D
:1012200023E07B6819687B681B68D86A3B685A684A
:1012300013469B001344413B1F2202FA03F3DB4396
:101240000340CB627B6819687B681B68D86A3B687F
:101250001B689BB21C463B685A6813469B001344AC
:10126000413B04FA03F30343CB62224BFB607B68F0
:101270001B68214A934209D13B681B68122B05D198
:10128000FB685B6843F48002FB685A607B681B68FC
:10129000194A934223D13B681B68102B03D03B684B
:1012A0001B68112B1BD1FB685B6843F40002FB68D1
:1012B0005A603B681B68102B11D1104B1B68104AF9
:1012C000A2FB03239A0C13469B0013445B00BB60F4
:1012D00002E0BB68013BBB60BB68002BF9D17B68B7
:1012E000002283F83C20002318461037BD4690BCEE
:1012F000704700BF00230140002001401000002083
:1013000083DE1B4380B485B000AF7860794BFB600F
:10131000FB685B6823F44032FB685A60FB685A68DC
:101320007B685B681A43FB685A607B681B687A6855
:101330001268526822F480725A607B681B687A686F
:10134000126851687A68126912020A435A607B680F
:101350001B687A681268526822F040725A607B6893
:101360001B687A68126851687A6892680A435A6002
:101370007B681B687A681268926822F400629A603F
:101380007B681B687A68126891687A68D2680A4339
:101390009A607B689B6A584A934222D07B681B689C
:1013A0007A681268926822F070629A607B681B68A3
:1013B0007A68126891687A68926A0A439A607B68D0
:1013C0001B687A681268926822F040529A607B68C3
:1013D0001B687A68126891687A68D26A0A439A60D0
:1013E0000FE07B681B687A681268926822F070626E
:1013F0009A607B681B687A681268926822F0405293
:101400009A607B681B687A681268926822F0020210
:101410009A607B681B687A68126891687A68127EA5
:1014200052000A439A607B6893F82030002B1BD04F
:101430007B681B687A681268526842F400625A60DE
:101440007B681B687A681268526822F460425A60AE
:101450007B681B687A68126851687A68526A013A38
:1014600052030A435A6007E07B681B687A68126877
:10147000526822F400625A607B681B687A681268BE
:10148000D26A22F47002DA627B681B687A6812689A
:10149000D16A7A68D269013A12050A43DA627B6836
:1014A0001B687A681268926822F400729A607B68FE
:1014B0001B687A68126891687A6892F83020520244
:1014C0000A439A607B681B687A681268926822F403
:1014D00080629A607B681B687A68126891687A6893
:1014E000526992020A439A6000BF1437BD465DF804
:1014F000047B7047002301400100000F80B584B0D9
:1015000000AF78607B68002B01D10123ECE07B68A1
:1015100093F82030DBB2002B02D1786806F0D2F8C5
:101520007B681B687A681268126842F001021A60D0
:10153000FFF774FDF86012E0FFF770FD0246FB68EC
:10154000D31A0A2B0BD97B685B6A43F400327B68A1
:101550005A627B68052283F820200123C4E07B685F
:101560001B685B6803F00103002BE5D07B681B68F8
:101570007A681268126822F002021A60FFF74EFDC4
:10158000F86012E0FFF74AFD0246FB68D31A0A2B07
:101590000BD97B685B6A43F400327B685A627B68D4
:1015A000052283F8202001239EE07B681B685B688E
:1015B00003F00203002BE5D17B681B7E012B08D1D1
:1015C0007B681B687A681268126842F080021A60B1
:1015D00007E07B681B687A681268126822F0800254
:1015E0001A607B685B7E012B08D17B681B687A6878
:1015F0001268126842F040021A6007E07B681B68BC
:101600007A681268126822F040021A607B689B7E3A
:10161000012B08D17B681B687A681268126842F057
:1016200020021A6007E07B681B687A6812681268FB
:1016300022F020021A607B68DB7E012B08D17B68D8
:101640001B687A681268126822F010021A6007E0BC
:101650007B681B687A681268126842F010021A6090
:101660007B681B7F012B08D17B681B687A68126836
:10167000126842F008021A6007E07B681B687A680B
:101680001268126822F008021A607B685B7F012BE7
:1016900008D17B681B687A681268126842F00402FD
:1016A0001A6007E07B681B687A681268126822F08B
:1016B00004021A607B681B687A6891687A68D2684D
:1016C00011437A68126911437A68526911437A6842
:1016D0005268013A0A43DA617B6800225A627B68E9
:1016E000012283F82020002318461037BD4680BD14
:1016F00080B485B000AF78607B6803F00703FB60BF
:101700000C4BDB68BB60BA684FF6FF031340BB604D
:10171000FB681A02BB68134343F0BF6343F4003312
:10172000BB60044ABB68D36000BF1437BD465DF898
:10173000047B704700ED00E080B400AF044BDB6831
:101740001B0A03F007031846BD465DF8047B70478B
:1017500000ED00E080B483B000AF0346FB7197F961
:101760000730002B0BDB094997F907305B09FA7941
:1017700002F01F02012000FA02F241F8232000BF0C
:101780000C37BD465DF8047B704700BF00E100E008
:1017900080B483B000AF03463960FB7197F907301E
:1017A000002B0ADB0D4997F907303A68D2B21201D3
:1017B000D2B20B4483F800230AE00949FB7903F015
:1017C0000F03043B3A68D2B21201D2B20B441A762C
:1017D00000BF0C37BD465DF8047B704700E100E0B8
:1017E00000ED00E080B489B000AFF860B9607A60C5
:1017F000FB6803F00703FB61FB69C3F10703042BDC
:1018000028BF0423BB61FB690433062B02D9FB69A3
:10181000033B00E000237B610122BB6902FA03F372
:101820005A1EBB681A407B699A4001217B6901FA04
:1018300003F3591E7B680B40134318462437BD46FB
:101840005DF8047B7047000080B582B000AF78601F
:101850007B68013BB3F1807F01D301230FE00A4A8B
:101860007B68013B53600F214FF0FF30FFF790FF83
:10187000054B00229A60044B07221A600023184689
:101880000837BD4680BD00BF10E000E080B582B0E3
:1018900000AF78607868FFF72BFF00BF0837BD46C0
:1018A00080BD80B586B000AF0346B9607A60FB7337
:1018B00000237B61FFF740FF78617A68B968786937
:1018C000FFF790FF024697F90F3011461846FFF7D1
:1018D0005FFF00BF1837BD4680BD80B582B000AF46
:1018E0000346FB7197F907301846FFF733FF00BF37
:1018F0000837BD4680BD80B582B000AF786078689B
:10190000FFF7A2FF034618460837BD4680BD80B5E5
:1019100084B000AF78607B689B6DFB60FFF77EFB57
:10192000B8607B6893F83530DBB2022B08D07B6857
:1019300080225A657B68002283F83420012352E01C
:101940007B681B687A681268126822F016021A60B7
:101950007B681B687A681268526922F080025A61BB
:101960007B681B6C002B03D17B689B6C002B07D022
:101970007B681B687A681268126822F008021A6095
:101980007B681B687A681268126822F001021A608C
:1019900013E0FFF743FB0246BB68D31A052B0CD9B3
:1019A0007B6820225A657B68032283F835207B6898
:1019B000002283F83420032315E07B681B681B6832
:1019C00003F00103002BE4D17B68DB6D3F229A40DA
:1019D000FB689A607B68012283F835207B680022CF
:1019E00083F83420002318461037BD4680BD80B4EC
:1019F00083B000AF78607B6893F83530DBB2022BA0
:101A000004D07B6880225A6501230CE07B680522A4
:101A100083F835207B681B687A681268126822F0A8
:101A200001021A60002318460C37BD465DF8047B9E
:101A30007047000080B489B000AF7860396000233F
:101A40007B6100233B610023BB610023FB616BE1F1
:101A50000122FB6902FA03F37B613B681A687B6928
:101A600013403B613A697B699A4240F05A813B6876
:101A70005B6803F00303012B05D03B685B6803F050
:101A80000303022B30D17B689B68BB61FB695B0061
:101A9000032202FA03F3DB43BA691340BB613B68DC
:101AA000DA68FB695B0002FA03F3BA691343BB61AE
:101AB0007B68BA699A607B685B68BB610122FB69DD
:101AC00002FA03F3DB43BA691340BB613B685B680E
:101AD0001B0903F00102FB6902FA03F3BA6913431D
:101AE000BB617B68BA695A603B685B6803F00303BB
:101AF000032B17D07B68DB68BB61FB695B000322AB
:101B000002FA03F3DB43BA691340BB613B689A688E
:101B1000FB695B0002FA03F3BA691343BB617B689C
:101B2000BA69DA603B685B6803F00303022B23D1D8
:101B3000FB69DA087B68083253F82230BB61FB6925
:101B400003F007039B000F2202FA03F3DB43BA6999
:101B50001340BB613B681A69FB6903F007039B00F4
:101B600002FA03F3BA691343BB61FB69DA087B68C5
:101B70000832B96943F822107B681B68BB61FB69B6
:101B80005B00032202FA03F3DB43BA691340BB6133
:101B90003B685B6803F00302FB695B0002FA03F336
:101BA000BA691343BB617B68BA691A603B685B68BA
:101BB00003F44033002B00F0B4800023FB605F4A45
:101BC0005E4B5B6C43F4804353645C4B5B6C03F48F
:101BD0008043FB60FB685A4AFB699B08023352F85A
:101BE0002330BB61FB6903F003039B000F2202FA61
:101BF00003F3DB43BA691340BB617B68514A9342EC
:101C00002BD07B68504A934225D07B684F4A934241
:101C10001FD07B684E4A934219D07B684D4A93424D
:101C200013D07B684C4A93420DD07B684B4A934259
:101C300007D07B684A4A934201D107230EE008236C
:101C40000CE006230AE0052308E0042306E0032352
:101C500004E0022302E0012300E00023FA6902F01D
:101C6000030292009340BA691343BB613449FB6994
:101C70009B080233BA6941F823203A4B1B68BB61C9
:101C80003B69DB43BA691340BB613B685B6803F4A3
:101C90008033002B03D0BA693B691343BB61314ADF
:101CA000BB6913602F4B5B68BB613B69DB43BA695F
:101CB0001340BB613B685B6803F40033002B03D027
:101CC000BA693B691343BB61264ABB695360254B24
:101CD0009B68BB613B69DB43BA691340BB613B68EE
:101CE0005B6803F48013002B03D0BA693B6913438C
:101CF000BB611C4ABB6993601A4BDB68BB613B69E3
:101D0000DB43BA691340BB613B685B6803F40013B3
:101D1000002B03D0BA693B691343BB61114ABB690D
:101D2000D360FB690133FB61FB690F2B7FF690AE3B
:101D300000BF2437BD465DF8047B70470038024081
:101D40000038014000000240000402400008024048
:101D5000000C024000100240001402400018024033
:101D6000001C0240003C014080B483B000AF7860AA
:101D70000B467B8013467B707B78002B03D07A88E0
:101D80007B689A6103E07B881A047B689A6100BFD4
:101D90000C37BD465DF8047B704780B485B000AF5A
:101DA00078600B467B807B685B69FB607A88FB68A8
:101DB00013401A04FB68D9437B880B401A437B68A5
:101DC0009A6100BF1437BD465DF8047B7047000080
:101DD00090B585B000AF78607B68002B01D10123FE
:101DE0001FE17B6893F83D30DBB2002B06D17B68A6
:101DF000002283F83C20786805F0ACFC7B68242244
:101E000083F83D207B681B687A681268126822F0AC
:101E100001021A607B681B687A681268126842F4D3
:101E200000421A607B681B687A681268126822F4A4
:101E300000421A6000F024FDF8607B685B687B4A12
:101E4000934207D8FB687A4A934294BF0123002348
:101E5000DBB206E0FB68774A934294BF012300237C
:101E6000DBB2002B01D00123DBE0FB68724AA2FB4E
:101E700003239B0CBB607B681B687A6812685268FE
:101E800022F03F01BA680A435A607B681A687B688F
:101E90001B681B6A23F03F017B685B6863488342D1
:101EA00002D8BB68013309E0BB684FF4967000FBB1
:101EB00003F36248A0FB03039B0901330B43136246
:101EC0007B6818687B681B68DB6923F44F4222F04B
:101ED000FF027B685B6855498B420DD8FB68591E31
:101EE0007B685B685B00B1FBF3F30133C3F30B0367
:101EF000042B38BF04234FE07B689B68002B11D173
:101F0000FB685C1E7B6859680B465B000B44B4FBA6
:101F1000F3F30133C3F30B03002B0CBF01230023A6
:101F2000DBB212E0FB685C1E7B6859680B469B00C5
:101F30000B4499000B44B4FBF3F30133C3F30B03DD
:101F4000002B0CBF01230023DBB2002B01D00123A7
:101F500022E07B689B68002B0ED1FB685C1E7B68CF
:101F600059680B465B000B44B4FBF3F30133C3F336
:101F70000B0343F400430FE0FB685C1E7B68596869
:101F80000B469B000B4499000B44B4FBF3F3013365
:101F9000C3F30B0343F440431343C3617B681B68E3
:101FA0007A681268126822F0C0017A68D0697A688B
:101FB000126A02430A431A607B681A687B681B68CE
:101FC0009B6823F4034323F0FF0379680869796869
:101FD000C96801430B4393607B681B687A68126889
:101FE000D26822F0FF017A6850697A6892690243E8
:101FF0000A43DA607B681B687A681268126842F0EC
:1020000001021A607B6800221A647B68202283F830
:102010003D207B6800221A637B68002283F83E2003
:10202000002318461437BD4690BD00BFA0860100AE
:102030007F841E00FF083D0083DE1B43D34D6210EA
:1020400080B586B000AF78607B68002B01D101239A
:1020500064E27B681B6803F00103002B75D0A34B7F
:102060009B6803F00C03042B0CD0A04B9B6803F07F
:102070000C03082B12D19D4B5B6803F48003B3F56E
:10208000800F0BD1994B1B6803F40033002B5BD0FE
:102090007B685B68002B57D101233FE27B685B685C
:1020A000B3F5803F06D1914A904B1B6843F48033CF
:1020B00013601DE07B685B68B3F5A02F0CD18B4AE1
:1020C0008A4B1B6843F480231360884A874B1B6844
:1020D00043F4803313600BE0844A844B1B6823F481
:1020E00080331360814A814B1B6823F48023136083
:1020F0007B685B68002B13D0FEF790FF386108E027
:10210000FEF78CFF02463B69D31A642B01D90323E7
:1021100004E2764B1B6803F40033002BF0D014E08C
:10212000FEF77CFF386108E0FEF778FF02463B6966
:10213000D31A642B01D90323F0E16C4B1B6803F421
:102140000033002BF0D100E000BF7B681B6803F078
:102150000203002B63D0654B9B6803F00C03002B3C
:102160000BD0624B9B6803F00C03082B1CD15F4B18
:102170005B6803F48003002B16D15C4B1B6803F0F3
:102180000203002B05D07B68DB68012B01D0012303
:10219000C4E15649554B1B6823F0F8027B681B6964
:1021A000DB0013430B603AE07B68DB68002B20D038
:1021B0004F4B01221A60FEF731FF386108E0FEF74D
:1021C0002DFF02463B69D31A022B01D90323A5E157
:1021D000464B1B6803F00203002BF0D04349434BEE
:1021E0001B6823F0F8027B681B69DB0013430B605C
:1021F00015E03F4B00221A60FEF710FF386108E03F
:10220000FEF70CFF02463B69D31A022B01D90323C8
:1022100084E1364B1B6803F00203002BF0D17B688E
:102220001B6803F00803002B30D07B685B69002B30
:1022300016D0304B01221A60FEF7F0FE386108E03C
:10224000FEF7ECFE02463B69D31A022B01D90323A9
:1022500064E1264B5B6F03F00203002BF0D015E026
:10226000244B00221A60FEF7D9FE386108E0FEF721
:10227000D5FE02463B69D31A022B01D903234DE157
:102280001A4B5B6F03F00203002BF0D17B681B68D5
:1022900003F00403002B00F0A0800023FB75134B18
:1022A0001B6C03F08053002B0FD10023BB600F4A3F
:1022B0000E4B1B6C43F0805313640C4B1B6C03F0F0
:1022C0008053BB60BB680123FB750B4B1B6803F499
:1022D0008073002B21D1084A074B1B6843F480739D
:1022E0001360FEF79BFE386111E000BF003802402A
:1022F00000004742800E474200700040FEF78EFE0D
:1023000002463B69D31A022B01D9032306E1854B10
:102310001B6803F48073002BF0D07B689B68012B53
:1023200006D1814A804B1B6F43F0010313671CE009
:102330007B689B68052B0CD17B4A7B4B1B6F43F062
:1023400004031367784A784B1B6F43F0010313674C
:102350000BE0754A744B1B6F23F001031367724A3D
:10236000714B1B6F23F0040313677B689B68002B82
:1023700015D0FEF753FE38610AE0FEF74FFE024625
:102380003B69D31A41F28832934201D90323C5E055
:10239000654B1B6F03F00203002BEED014E0FEF739
:1023A0003DFE38610AE0FEF739FE02463B69D31A6A
:1023B00041F28832934201D90323AFE05A4B1B6F9D
:1023C00003F00203002BEED1FB7D012B05D1564A11
:1023D000554B1B6C23F0805313647B689B69002B67
:1023E00000F09B80504B9B6803F00C03082B5CD0E3
:1023F0007B689B69022B41D14C4B00221A60FEF78F
:102400000DFE386108E0FEF709FE02463B69D31A6B
:10241000022B01D9032381E0434B1B6803F00073B7
:10242000002BF0D140497B68DA697B681B6A1A434C
:102430007B685B6A9B011A437B689B6A5B08013B74
:102440001B041A437B68DB6A1B0613434B60374B44
:1024500001221A60FEF7E2FD386108E0FEF7DEFDBA
:1024600002463B69D31A022B01D9032356E02E4BB7
:102470001B6803F00073002BF0D04EE02B4B0022C2
:102480001A60FEF7CBFD386108E0FEF7C7FD024693
:102490003B69D31A022B01D903233FE0224B1B686F
:1024A00003F00073002BF0D137E07B689B69012BB0
:1024B00001D1012332E01C4B5B68FB607B689B69A8
:1024C000012B28D0FB6803F480027B68DB699A4209
:1024D00021D1FB6803F03F027B681B6A9A421AD144
:1024E000FA6847F6C07313407A68526A92019342C1
:1024F00011D1FB6803F440327B689B6A5B08013BA7
:102500001B049A4207D1FB6803F070627B68DB6AA8
:102510001B069A4201D0012300E000231846183719
:10252000BD4680BD00700040003802406000474258
:1025300080B584B000AF786039607B68002B01D132
:102540000123CCE0684B1B6803F007023B689A420A
:102550000CD2654B3A68D2B21A70634B1B6803F019
:1025600007023B689A4201D00123B8E07B681B68F0
:1025700003F00203002B20D07B681B6803F00403E8
:10258000002B05D0594A594B9B6843F4E0539360A4
:102590007B681B6803F00803002B05D0534A534B9C
:1025A0009B6843F4604393605049504B9B6823F011
:1025B000F0027B689B6813438B607B681B6803F0A9
:1025C0000103002B44D07B685B68012B07D1474B8C
:1025D0001B6803F40033002B19D101237FE07B68D3
:1025E0005B68022B03D07B685B68032B07D13F4BF2
:1025F0001B6803F00073002B09D101236FE03B4BF4
:102600001B6803F00203002B01D1012367E0374967
:10261000364B9B6823F003027B685B6813438B6037
:10262000FEF7FCFCF8600AE0FEF7F8FC0246FB68E7
:10263000D31A41F28832934201D903234FE02B4B46
:102640009B6803F00C027B685B689B009A42EBD1AD
:10265000254B1B6803F007023B689A420CD9224BBA
:102660003A68D2B21A70204B1B6803F007023B682D
:102670009A4201D0012332E07B681B6803F0040317
:10268000002B08D01949194B9B6823F4E0527B6852
:10269000DB6813438B607B681B6803F00803002B27
:1026A00009D01249114B9B6823F460427B681B6977
:1026B000DB0013438B6000F021F801460B4B9B6855
:1026C0001B0903F00F030A4AD35C21FA03F3094AFA
:1026D0001360094B1B681846FEF75CFC0023184684
:1026E0001037BD4680BD00BF003C024000380240AC
:1026F00018D9000810000020000000202DE9F04F3C
:1027000087B000AF0022FA6000227A610022BA602E
:1027100000223A61514A926802F00C02042A07D062
:10272000082A08D0002A40F090804D4B3B618FE092
:102730004C4B3B618CE0494A526802F03F02FA6020
:10274000464A526802F48002002A23D0434B5B6859
:102750009B094FF0000440F2FF114FF0000203EA22
:10276000010304EA02043F4A02FB04F1002202FBD7
:1027700003F20A443B49A3FB010153181946FB68C5
:102780004FF000041A462346FEF75AFA03460C4659
:102790007B614CE0314A5268920911464FF00002C9
:1027A00040F2FF154FF0000605EA010506EA0206B1
:1027B000294632464FEA421B4BEAD16B4FEA411A97
:1027C00051465A46AA46B34655465E464D1B62EBF5
:1027D000060629463246940144EA91648B015B1A4D
:1027E00064EB02044FEAC40949EA53794FEAC3088B
:1027F00043464C4655465E46ED1846EB04062B46CE
:102800003446A2027A607A6842EA93527A609B0266
:102810003B6097E8180018462146FB684FF000041B
:102820001A462346FEF70CFA03460C467B610B4B17
:102830005B681B0C03F0030301335B00BB607A6928
:10284000BB68B2FBF3F33B6102E0054B3B6100BFA9
:102850003B6918461C37BD46BDE8F08F0038024082
:102860000024F400001BB70080B400AF034B1B68CA
:102870001846BD465DF8047B704700BF100000207D
:1028800080B500AFFFF7F0FF0146054B9B689B0A40
:1028900003F00703034AD35C21FA03F3184680BD13
:1028A0000038024028D9000880B500AFFFF7DCFFF0
:1028B0000146054B9B685B0B03F00703034AD35C9F
:1028C00021FA03F3184680BD0038024028D90008D9
:1028D00080B582B000AF78607B68002B01D1012306
:1028E0007AE07B685B6A002B08D17B685B68B3F594
:1028F000827F09D07B680022DA6105E07B680022D4
:102900001A617B6800225A617B6800229A627B68A8
:1029100093F85130DBB2002B06D17B68002283F89C
:102920005020786804F05EFF7B68022283F8512013
:102930007B681B687A681268126822F040021A608D
:102940007B681B687A68526802F482717A689268C0
:1029500002F4044211437A68D26802F4006211431F
:102960007A68126902F0020211437A68526902F031
:10297000010211437A68926902F4007211437A6885
:10298000D26902F0380211437A68126A02F08002BA
:1029900011437A68926A02F400520A431A607B6813
:1029A0001B687A689269120C02F004017A68526A14
:1029B00002F010020A435A607B681B687A6812684A
:1029C000D26922F40062DA617B6800225A657B6872
:1029D000012283F85120002318460837BD4680BDE8
:1029E00080B588B000AFF860B9603B601346FB80EB
:1029F0000023FB77FB6893F85030012B01D10223B1
:102A000024E1FB68012283F85020FEF707FBB86140
:102A1000FB88FB82FB6893F85130DBB2012B02D0BC
:102A20000223FB7709E1BB68002B02D0FB88002B57
:102A300002D10123FB7700E1FB68032283F85120D8
:102A4000FB6800225A65FB68BA681A63FB68FA885B
:102A50009A86FB68FA88DA86FB6800229A63FB682C
:102A600000229A87FB680022DA87FB6800225A64FA
:102A7000FB6800221A64FB689B68B3F5004F0FD116
:102A8000FB681B68FA681268126822F040021A603C
:102A9000FB681B68FA681268126842F480421A6088
:102AA000FB681B681B6803F04003402B07D0FB68E2
:102AB0001B68FA681268126842F040021A60FB68EC
:102AC000DB68B3F5006F4BD1FB685B68002B02D06D
:102AD000FB8A012B3ED1FB681B68FA68126B1288D7
:102AE000DA60FB681B6B9A1CFB681A63FB68DB8E61
:102AF0009BB2013B9AB2FB68DA862BE0FB681B684D
:102B00009B6803F00203022B12D1FB681B68FA6872
:102B1000126B1288DA60FB681B6B9A1CFB681A63E5
:102B2000FB68DB8E9BB2013B9AB2FB68DA8611E050
:102B3000FEF774FA0246BB69D21A3B689A4203D385
:102B40003B68B3F1FF3F02D13B68002B02D1032366
:102B5000FB7772E0FB68DB8E9BB2002BCED14CE0A2
:102B6000FB685B68002B02D0FB8A012B40D1FB681D
:102B70001B680C33FA68126B12781A70FB681B6BB7
:102B80005A1CFB681A63FB68DB8E9BB2013B9AB24E
:102B9000FB68DA862CE0FB681B689B6803F0020385
:102BA000022B13D1FB681B680C33FA68126B127886
:102BB0001A70FB681B6B5A1CFB681A63FB68DB8E80
:102BC0009BB2013B9AB2FB68DA8611E0FEF726FA67
:102BD0000246BB69D21A3B689A4203D33B68B3F101
:102BE000FF3F02D13B68002B02D10323FB7724E097
:102BF000FB68DB8E9BB2002BCDD1BA693968F868CF
:102C000000F050FA0346002B02D0FB6820225A65E0
:102C1000FB689B68002B0AD100233B61FB681B68A3
:102C2000DB683B61FB681B689B683B613B69FB6839
:102C30005B6D002B01D00123FB77FB68012283F839
:102C40005120FB68002283F85020FB7F1846203774
:102C5000BD4680BD80B58CB000AFF860B9607A60C9
:102C60007B800123FB62002387F82B30FB6893F8FD
:102C70005030012B01D1022388E1FB68012283F847
:102C80005020FEF7CBF97862FB6893F8513087F853
:102C90002330FB685B68FB617B887B8397F823307C
:102CA000012B0FD0FB69B3F5827F07D1FB689B68CE
:102CB000002B03D197F82330042B03D0022387F88D
:102CC0002B3059E1BB68002B05D07B68002B02D06C
:102CD0007B88002B03D1012387F82B304CE1FB6864
:102CE00093F85130DBB2042B03D0FB68052283F844
:102CF0005120FB6800225A65FB687A689A63FB687A
:102D00007A88DA87FB687A889A87FB68BA681A63D8
:102D1000FB687A88DA86FB687A889A86FB680022E4
:102D20001A64FB6800225A64FB681B681B6803F086
:102D30004003402B07D0FB681B68FA6812681268D2
:102D400042F040021A60FB68DB68B3F5006F78D18F
:102D5000FB685B68002B02D07B8B012B66D1FB6884
:102D60001B68FA68126B1288DA60FB681B6B9A1C8E
:102D7000FB681A63FB68DB8E9BB2013B9AB2FB686F
:102D8000DA8653E0FB681B689B6803F00203022BA2
:102D90001BD1FB68DB8E9BB2002B16D0FB6A012B8C
:102DA00013D1FB681B68FA68126B1288DA60FB6843
:102DB0001B6B9A1CFB681A63FB68DB8E9BB2013BA2
:102DC0009AB2FB68DA860023FB62FB681B689B688B
:102DD00003F00103012B19D1FB68DB8F9BB2002BA1
:102DE00014D0FB689B6BFA681268D26892B21A80A2
:102DF000FB689B6B9A1CFB689A63FB68DB8F9BB23A
:102E0000013B9AB2FB68DA870123FB62FEF706F901
:102E100002467B6AD21ABB6B9A4207D3BB6BB3F1F3
:102E2000FF3F03D0032387F82B30A5E0FB68DB8E40
:102E30009BB2002BA6D1FB68DB8F9BB2002BA1D1EC
:102E40007CE0FB685B68002B02D07B8B012B6BD195
:102E5000FB681B680C33FA68126B12781A70FB68F7
:102E60001B6B5A1CFB681A63FB68DB8E9BB2013B31
:102E70009AB2FB68DA8657E0FB681B689B6803F030
:102E80000203022B1CD1FB68DB8E9BB2002B17D0F8
:102E9000FB6A012B14D1FB681B680C33FA68126BB8
:102EA00012781A70FB681B6B5A1CFB681A63FB686C
:102EB000DB8E9BB2013B9AB2FB68DA860023FB6291
:102EC000FB681B689B6803F00103012B19D1FB68A9
:102ED000DB8F9BB2002B14D0FB689B6BFA681268E7
:102EE000D268D2B21A70FB689B6B5A1CFB689A635B
:102EF000FB68DB8F9BB2013B9AB2FB68DA87012348
:102F0000FB62FEF78BF802467B6AD21ABB6B9A42D1
:102F100003D3BB6BB3F1FF3F02D1BB6B002B03D1DB
:102F2000032387F82B3027E0FB68DB8E9BB2002B56
:102F3000A2D1FB68DB8F9BB2002B9DD17A6AB96B63
:102F4000F86800F0AFF80346002B06D0012387F89D
:102F50002B30FB6820225A650EE0FB689B68002B33
:102F60000AD100237B61FB681B68DB687B61FB681F
:102F70001B689B687B617B69FB68012283F8512099
:102F8000FB68002283F8502097F82B301846303722
:102F9000BD4680BD80B588B000AFF860B9603B60C9
:102FA0001346FB71FEF73AF80246BB6A9A1A3B6871
:102FB0001344FB61FEF732F8B861394B1B685B01C3
:102FC0001B0DFA6902FB03F37B6154E03B68B3F12C
:102FD000FF3F50D0FEF722F80246BB69D21AFB69C8
:102FE0009A4202D2FB69002B3DD1FB681B68FA684C
:102FF0001268526822F0E0025A60FB685B68B3F521
:10300000827F11D1FB689B68B3F5004F04D0FB6849
:103010009B68B3F5806F07D1FB681B68FA6812687C
:10302000126822F040021A60FB689B6AB3F5005FE9
:103030000FD1FB681B68FA681268126822F400520C
:103040001A60FB681B68FA681268126842F4005242
:103050001A60FB68012283F85120FB68002283F884
:103060005020032317E07B69002B01D10023FB6173
:103070007B69013B7B61FB681B689A68BB681A40EF
:10308000BB689A420CBF01230023DBB21A46FB79CE
:103090009A429BD1002318462037BD4680BD00BF11
:1030A0001000002080B588B002AFF860B9607A6087
:1030B0001B4B1B681B4AA2FB03235B0D4FF47A7268
:1030C00002FB03F37B61FB685B68B3F5827F12D17F
:1030D0007B680093BB6800228021F868FFF75AFFE5
:1030E0000346002B16D0FB685B6D43F02002FB68A3
:1030F0005A6503230FE07B69002B0AD07B69013BF3
:103100007B61FB681B689B6803F08003802BF2D017
:1031100000E000BF002318461837BD4680BD00BF41
:1031200010000020819F5E1680B582B000AF7860ED
:103130007B68002B01D1012341E07B6893F83D308F
:10314000DBB2002B06D17B68002283F83C20786834
:1031500004F0B0FB7B68022283F83D207B681A688C
:103160007B6804331946104600F04AFB7B68012255
:1031700083F846207B68012283F83E207B68012289
:1031800083F83F207B68012283F840207B6801227E
:1031900083F841207B68012283F842207B6801226A
:1031A00083F843207B68012283F844207B68012256
:1031B00083F845207B68012283F83D2000231846D0
:1031C0000837BD4680BD000080B584B000AF786090
:1031D00039603B68002B09D17B6893F83E30DBB245
:1031E000012B14BF01230023DBB222E03B68042B38
:1031F00009D17B6893F83F30DBB2012B14BF012368
:103200000023DBB215E03B68082B09D17B6893F8FB
:103210004030DBB2012B14BF01230023DBB208E0F6
:103220007B6893F84130DBB2012B14BF01230023EC
:10323000DBB2002B01D001237CE03B68002B04D1E2
:103240007B68022283F83E2013E03B68042B04D104
:103250007B68022283F83F200BE03B68082B04D1F7
:103260007B68022283F8402003E07B68022283F817
:1032700041207B681B6801223968184600F03AFE3D
:103280007B681B682D4A934204D07B681B682C4ADC
:10329000934201D1012300E00023002B07D07B687B
:1032A0001B687A681268526C42F400425A647B6868
:1032B0001B68224A934222D07B681B68B3F1804F7F
:1032C0001DD07B681B681F4A934218D07B681B681F
:1032D0001D4A934213D07B681B681C4A93420ED050
:1032E0007B681B68164A934209D07B681B68184AA2
:1032F000934204D07B681B68164A934211D17B68C5
:103300001B689B6803F00703FB60FB68062B10D06B
:103310007B681B687A681268126842F001021A60C2
:1033200007E07B681B687A681268126842F0010245
:103330001A60002318461037BD4680BD00000140CA
:10334000000401400004004000080040000C004060
:10335000004001400018004080B582B000AF7860A6
:103360007B68002B01D1012341E07B6893F83D305D
:10337000DBB2002B06D17B68002283F83C20786802
:1033800004F016FB7B68022283F83D207B681A68F4
:103390007B6804331946104600F032FA7B6801223C
:1033A00083F846207B68012283F83E207B68012257
:1033B00083F83F207B68012283F840207B6801224C
:1033C00083F841207B68012283F842207B68012238
:1033D00083F843207B68012283F844207B68012224
:1033E00083F845207B68012283F83D20002318469E
:1033F0000837BD4680BD80B586B000AF78603960C3
:103400007B68002B01D1012397E07B6893F83D3066
:10341000DBB2002B06D17B68002283F83C20786861
:1034200004F07EFA7B68022283F83D207B681A68EC
:103430007B681B689B6823F4804323F00703936039
:103440007B681A687B6804331946104600F0D8F987
:103450007B681B689B687B617B681B689B693B6121
:103460007B681B681B6AFB603B681B687A691343B7
:103470007B613B6923F4407323F003033B613B68AA
:103480009A683B689B691B0213433A6913433B618B
:103490003B6923F4406323F00C033B613B6923F455
:1034A000704323F0F0033B613B68DA683B68DB69FB
:1034B0001B0213433A6913433B613B681B691A01C2
:1034C0003B681B6A1B0313433A6913433B61FB6868
:1034D00023F02203FB60FB6823F08803FB603B685A
:1034E0005A683B685B691B011343FA681343FB602E
:1034F0007B681B687A699A607B681B683A699A6185
:103500007B681B68FA681A627B68012283F8462090
:103510007B68012283F83E207B68012283F83F20EC
:103520007B68012283F842207B68012283F84320D4
:103530007B68012283F83D20002318461837BD46DA
:1035400080BD80B586B000AFF860B9607A600023B6
:10355000FB75FB6893F83C30012B01D1022388E016
:10356000FB68012283F83C207B68002B1BD1FB68A1
:103570001868BB681968BB685A68BB68DB6800F0EC
:103580008FFBFB681B68FA681268926922F00C02D4
:103590009A61FB681B68FA6812689169BA68926858
:1035A0000A439A6160E07B68042B1CD1FB681868B1
:1035B000BB681968BB685A68BB68DB6800F0E4FB4D
:1035C000FB681B68FA681268926922F440629A618B
:1035D000FB681B68FA6812689169BA6892681202FF
:1035E0000A439A6140E07B68082B1BD1FB6818688E
:1035F000BB681968BB685A68BB68DB6800F001FCEF
:10360000FB681B68FA681268D26922F00C02DA6162
:10361000FB681B68FA681268D169BA6892680A4345
:10362000DA6121E07B680C2B1CD1FB681868BB6851
:103630001968BB685A68BB68DB6800F01EFCFB6851
:103640001B68FA681268D26922F44062DA61FB688A
:103650001B68FA681268D169BA68926812020A4354
:10366000DA6101E00123FB75FB68002283F83C204E
:10367000FB7D18461837BD4680BD000080B586B07A
:1036800000AFF860B9607A600023FB75FB6893F8BF
:103690003C30012B01D10223AEE0FB68012283F80C
:1036A0003C207B680C2B00F29F8001A252F823F093
:1036B000E5360008E9370008E9370008E93700086F
:1036C00025370008E9370008E9370008E93700081E
:1036D00067370008E9370008E9370008E9370008CC
:1036E000A7370008FB681B68B968184600F028F97E
:1036F000FB681B68FA681268926942F008029A61D6
:10370000FB681B68FA681268926922F004029A61E9
:10371000FB681B68FA6812689169BA6812690A4303
:103720009A6164E0FB681B68B968184600F078F994
:10373000FB681B68FA681268926942F400629A6139
:10374000FB681B68FA681268926922F480629A61C9
:10375000FB681B68FA6812689169BA6812691202FC
:103760000A439A6143E0FB681B68B968184600F099
:10377000CDF9FB681B68FA681268D26942F008024A
:10378000DA61FB681B68FA681268D26922F00402E9
:10379000DA61FB681B68FA681268D169BA68126955
:1037A0000A43DA6123E0FB681B68B968184600F039
:1037B00021FAFB681B68FA681268D26942F4006259
:1037C000DA61FB681B68FA681268D26922F48062C9
:1037D000DA61FB681B68FA681268D169BA68126915
:1037E00012020A43DA6102E00123FB7500BFFB68A5
:1037F000002283F83C20FB7D18461837BD4680BD6B
:1038000080B485B000AF786039607B681B68FB606E
:103810007B68404A934213D07B68B3F1804F0FD04E
:103820007B683D4A93420BD07B683C4A934207D069
:103830007B683B4A934203D07B683A4A934208D163
:10384000FB6823F07003FB603B685B68FA68134316
:10385000FB607B682F4A93422BD07B68B3F1804F8B
:1038600027D07B682C4A934223D07B682B4A934213
:103870001FD07B682A4A93421BD07B68294A934217
:1038800017D07B68284A934213D07B68274A93421B
:103890000FD07B68264A93420BD07B68254A93421F
:1038A00007D07B68244A934203D07B68234A934223
:1038B00008D1FB6823F44073FB603B68DB68FA685F
:1038C0001343FB60FB6823F080023B685B69134392
:1038D000FB607B68FA681A603B689A687B68DA620A
:1038E0003B681A687B689A627B680A4A934203D0F5
:1038F0007B680C4A934203D13B681A697B681A6360
:103900007B6801225A6100BF1437BD465DF8047B15
:10391000704700BF00000140000400400008004064
:10392000000C004000040140004001400044014000
:103930000048014000180040001C004000200040EA
:1039400080B487B000AF786039607B681B6A23F071
:1039500001027B681A627B681B6A7B617B685B681B
:103960003B617B689B69FB60FB6823F07003FB6035
:10397000FB6823F00303FB603B681B68FA68134392
:10398000FB607B6923F002037B613B689B687A697B
:1039900013437B617B68204A934203D07B681F4AB4
:1039A00093420CD17B6923F008037B613B68DB68A1
:1039B0007A6913437B617B6923F004037B617B6835
:1039C000154A934203D07B68144A934211D13B6954
:1039D00023F480733B613B6923F400733B613B68D4
:1039E0005B693A6913433B613B689B693A691343DE
:1039F0003B617B683A695A607B68FA689A613B6808
:103A00005A687B685A637B687A691A6200BF1C3700
:103A1000BD465DF8047B7047000001400004014092
:103A200080B487B000AF786039607B681B6A23F090
:103A300010027B681A627B681B6A7B617B685B682B
:103A40003B617B689B69FB60FB6823F4E043FB60A0
:103A5000FB6823F44073FB603B681B681B02FA6839
:103A60001343FB607B6923F020037B613B689B6809
:103A70001B017A6913437B617B68224A934203D01E
:103A80007B68214A93420DD17B6923F080037B61DF
:103A90003B68DB681B017A6913437B617B6923F018
:103AA00040037B617B68174A934203D07B68164AC8
:103AB000934213D13B6923F480633B613B6923F458
:103AC00000633B613B685B699B003A6913433B6160
:103AD0003B689B699B003A6913433B617B683A6989
:103AE0005A607B68FA689A613B685A687B689A6397
:103AF0007B687A691A6200BF1C37BD465DF8047B9B
:103B0000704700BF000001400004014080B487B04E
:103B100000AF786039607B681B6A23F480727B6831
:103B20001A627B681B6A7B617B685B683B617B68B0
:103B3000DB69FB60FB6823F07003FB60FB6823F02C
:103B40000303FB603B681B68FA681343FB607B69F7
:103B500023F400737B613B689B681B027A69134303
:103B60007B617B68214A934203D07B68204A934261
:103B70000DD17B6923F400637B613B68DB681B022A
:103B80007A6913437B617B6923F480637B617B6883
:103B9000164A934203D07B68154A934213D13B697E
:103BA00023F480533B613B6923F400533B613B6842
:103BB0005B691B013A6913433B613B689B691B01CD
:103BC0003A6913433B617B683A695A607B68FA68DB
:103BD000DA613B685A687B68DA637B687A691A62E3
:103BE00000BF1C37BD465DF8047B704700000140F4
:103BF0000004014080B487B000AF786039607B6812
:103C00001B6A23F480527B681A627B681B6A3B61E3
:103C10007B685B687B617B68DB69FB60FB6823F426
:103C2000E043FB60FB6823F44073FB603B681B6868
:103C30001B02FA681343FB603B6923F400533B61AA
:103C40003B689B681B033A6913433B617B68124ADC
:103C5000934203D07B68114A934209D17B6923F4D4
:103C600080437B613B685B699B017A6913437B619D
:103C70007B687A695A607B68FA68DA613B685A68DF
:103C80007B681A647B683A691A6200BF1C37BD46BC
:103C90005DF8047B704700BF000001400004014054
:103CA00080B487B000AFF860B9607A603B60FB68B1
:103CB0001B6A23F00102FB681A62FB689B697B6147
:103CC000FB681B6A3B61FB68284A93421BD0FB6878
:103CD000B3F1804F17D0FB68254A934213D0FB689D
:103CE000244A93420FD0FB68234A93420BD0FB68CF
:103CF000224A934207D0FB68214A934203D0FB68D3
:103D0000204A934201D1012300E00023002B08D078
:103D10007B6923F003037B617A697B6813437B61D2
:103D200003E07B6943F001037B617B6923F0F003CF
:103D30007B613B681B01DBB27A6913437B613B69A2
:103D400023F00A033B61BB6803F00A033A6913439B
:103D50003B61FB687A699A61FB683A691A6200BF45
:103D60001C37BD465DF8047B704700BF0000014072
:103D70000004004000080040000C00400004014026
:103D8000004001400018004080B487B000AFF860E8
:103D9000B9607A603B60FB681B6A23F01002FB6825
:103DA0001A62FB689B697B61FB681B6A3B617B69EC
:103DB00023F440737B617B681B027A6913437B6148
:103DC0007B6923F470437B613B681B039BB27A6978
:103DD00013437B613B6923F0A0033B61BB681B017C
:103DE00003F0A0033A6913433B61FB687A699A6167
:103DF000FB683A691A6200BF1C37BD465DF8047B58
:103E0000704780B487B000AFF860B9607A603B60FB
:103E1000FB681B6A23F48072FB681A62FB68DB692B
:103E20007B61FB681B6A3B617B6923F003037B6159
:103E30007A697B6813437B617B6923F0F0037B61C4
:103E40003B681B01DBB27A6913437B613B6923F456
:103E500020633B61BB681B0203F420633A69134390
:103E60003B61FB687A69DA61FB683A691A6200BFF4
:103E70001C37BD465DF8047B704780B487B000AF47
:103E8000F860B9607A603B60FB681B6A23F480527B
:103E9000FB681A62FB68DB697B61FB681B6A3B613C
:103EA0007B6923F440737B617B681B027A6913434F
:103EB0007B617B6923F470437B613B681B039BB28E
:103EC0007A6913437B613B6923F420433B61BB6800
:103ED0001B0303F420433A6913433B61FB687A698F
:103EE000DA61FB683A691A6200BF1C37BD465DF8AB
:103EF000047B704780B487B000AFF860B9607A6027
:103F0000BB6803F01F03012202FA03F37B61FB6825
:103F10001A6A7B69DB431A40FB681A62FB681A6AFB
:103F2000BB6803F01F03796801FA03F31A43FB68C7
:103F30001A6200BF1C37BD465DF8047B7047000065
:103F400080B485B000AF786039607B6893F83C300E
:103F5000012B01D102235AE07B68012283F83C2027
:103F60007B68022283F83D207B681B685B68FB60EE
:103F70007B681B689B68BB60FB6823F07003FB6079
:103F80003B681B68FA681343FB607B681B68FA6830
:103F90005A607B681B68214A934222D07B681B6869
:103FA000B3F1804F1DD07B681B681D4A934218D027
:103FB0007B681B681B4A934213D07B681B681A4AB4
:103FC00093420ED07B681B68184A934209D07B68E5
:103FD0001B68174A934204D07B681B68154A9342BA
:103FE0000CD1BB6823F08003BB603B685B68BA6898
:103FF0001343BB607B681B68BA689A607B680122C8
:1040000083F83D207B68002283F83C20002318467B
:104010001437BD465DF8047B704700BF00000140C7
:104020000004004000080040000C00400004014073
:10403000004001400018004080B582B000AF7860B9
:104040007B68002B01D101233FE07B6893F83D3072
:10405000DBB2002B06D17B68002283F83C20786815
:1040600003F04EFD7B68242283F83D207B681B68AB
:104070007A681268D26822F40052DA60786800F038
:10408000D9FD7B681B687A681268126922F4904235
:104090001A617B681B687A681268526922F02A02EA
:1040A0005A617B681B687A681268D26842F40052D1
:1040B000DA607B6800221A647B68202283F83D2046
:1040C0007B68202283F83E20002318460837BD462F
:1040D00080BD80B58AB002AFF860B9603B6013461E
:1040E000FB8000237B61FB6893F83D30DBB2202B23
:1040F0007BD1BB68002B02D0FB88002B01D10123B0
:1041000074E0FB6893F83C30012B01D102236DE091
:10411000FB68012283F83C20FB6800221A64FB68DC
:10412000212283F83D20FCF779FF7861FB68FA884B
:104130009A84FB68FA88DA84FB689B68B3F5805F31
:1041400008D1FB681B69002B04D10023FB61BB680D
:10415000BB6103E0BB68FB610023BB61FB6800221D
:1041600083F83C2029E03B6800937B690022802192
:10417000F86800F01DFB0346002B01D0032335E057
:10418000FB69002B0AD1FB681B68BA691288C2F36D
:1041900008025A60BB690233BB6107E0FB681B6819
:1041A000FA6912785A60FB690133FB61FB68DB8CAA
:1041B0009BB2013B9AB2FB68DA84FB68DB8C9BB252
:1041C000002BD0D13B6800937B6900224021F86826
:1041D00000F0EEFA0346002B01D0032306E0FB6853
:1041E000202283F83D20002300E0022318462037D8
:1041F000BD4680BD80B584B000AFF860B96013469D
:10420000FB80FB6893F83E30DBB2202B1DD1BB68EE
:10421000002B02D0FB88002B01D1012316E0FB68A4
:1042200093F83C30012B01D102230FE0FB680122FF
:1042300083F83C20FB6800221A63FB881A46B968A1
:10424000F86800F023FB034600E00223184610370D
:10425000BD4680BD80B5BAB000AF78607B681B6892
:104260001B68C7F8E4307B681B68DB68C7F8E03080
:104270007B681B685B69C7F8DC300023C7F8D8305F
:104280000023C7F8D430D7F8E43003F00F03C7F8A1
:10429000D830D7F8D830002B0FD1D7F8E43003F05E
:1042A0002003002B09D0D7F8E03003F02003002BC7
:1042B00003D0786800F002FC57E2D7F8D830002B22
:1042C00000F0DE80D7F8DC3003F00103002B06D1CC
:1042D000D7F8E03003F49073002B00F0D180D7F8CA
:1042E000E43003F00103002B0BD0D7F8E03003F4E7
:1042F0008073002B05D07B681B6C43F001027B6848
:104300001A64D7F8E43003F00403002B0BD0D7F87D
:10431000DC3003F00103002B05D07B681B6C43F0FD
:1043200002027B681A64D7F8E43003F00203002B22
:104330000BD0D7F8DC3003F00103002B05D07B68ED
:104340001B6C43F004027B681A64D7F8E43003F076
:104350000803002B11D0D7F8E03003F02003002B26
:1043600005D1D7F8DC3003F00103002B05D07B68C2
:104370001B6C43F008027B681A647B681B6C002B83
:1043800000F0EE81D7F8E43003F02003002B08D0D2
:10439000D7F8E03003F02003002B02D0786800F05B
:1043A0008DFB7B681B685B6903F04003402B0CBFEF
:1043B00001230023DBB2C7F8D4307B681B6C03F009
:1043C0000803002B03D1D7F8D430002B4FD07868E6
:1043D00000F096FA7B681B685B6903F04003402B92
:1043E00041D17B681B681433C7F89C30D7F89C30E8
:1043F00053E8003FC7F89830D7F8983023F04003CF
:10440000C7F8D0307B681B681433D7F8D020C7F8C2
:10441000A820C7F8A430D7F8A410D7F8A82041E8FE
:104420000023C7F8A030D7F8A030002BD9D17B6883
:104430009B6B002B13D07B689B6B7D4A1A657B6856
:104440009B6B1846FDF7D3FA0346002B16D07B680A
:104450009B6B1B6D7A68926B104698470EE07868EC
:1044600000F090F90AE0786800F08CF906E07868CE
:1044700000F088F97B6800221A6471E100BF6FE1E7
:104480007B681B6B012B40F04A81D7F8E43003F0C6
:104490001003002B00F04381D7F8E03003F0100345
:1044A000002B00F03C810023BB607B681B681B680D
:1044B000BB607B681B685B68BB60BB687B681B6814
:1044C0005B6903F04003402B40F0B4807B689B6B3A
:1044D0001B685B68A7F8CE30B7F8CE30002B00F031
:1044E00041817B689B8DB7F8CE209A4280F03A815B
:1044F0007B68B7F8CE20DA857B689B6BDB69B3F508
:10450000807F00F088807B681B680C33C7F8883098
:10451000D7F8883053E8003FC7F88430D7F88430A4
:1045200023F48073C7F8C8307B681B680C33D7F856
:10453000C820C7F89420C7F89030D7F89010D7F863
:10454000942041E80023C7F88C30D7F88C30002B3A
:10455000D9D17B681B6814337B677B6F53E8003FBE
:104560003B673B6F23F00103C7F8C4307B681B68CF
:104570001433D7F8C420C7F88020FB67F96FD7F849
:10458000802041E80023BB67BB6F002BE1D17B6833
:104590001B6814333B663B6E53E8003FFB65FB6DC5
:1045A00023F04003C7F8C0307B681B681433D7F88A
:1045B000C020FA66BB66B96EFA6E41E800237B66DE
:1045C0007B6E002BE3D17B68202283F83E207B6842
:1045D00000221A637B681B680C33FB64FB6C53E896
:1045E000003FBB64BB6C23F01003C7F8BC307B6892
:1045F0001B680C33D7F8BC20BA657B65796DBA6D42
:1046000041E800233B653B6D002BE3D17B689B6B4E
:104610001846FDF77CF97B689A8D7B68DB8D9BB231
:10462000D31A9BB21946786800F0B6F89AE000BF3A
:10463000C74900087B689A8D7B68DB8D9BB2D31AD3
:10464000A7F8BA307B68DB8D9BB2002B00F08C8022
:10465000B7F8BA30002B00F087807B681B680C33FA
:10466000BB63BB6B53E8003F7B637B6B23F49073AE
:10467000C7F8B4307B681B680C33D7F8B4207A6471
:104680003B64396C7A6C41E80023FB63FB6B002BC5
:10469000E3D17B681B6814337B627B6A53E8003F7D
:1046A0003B623B6A23F00103C7F8B0307B681B68AC
:1046B0001433D7F8B0203A63FB62F96A3A6B41E8E9
:1046C0000023BB62BB6A002BE3D17B68202283F806
:1046D0003E207B6800221A637B681B680C333B61B9
:1046E0003B6953E8003FFB60FB6823F01003C7F809
:1046F000AC307B681B680C33D7F8AC20FA61BB6127
:10470000B969FA6941E800237B617B69002BE3D139
:10471000B7F8BA301946786800F03EF824E0D7F8C8
:10472000E43003F08003002B09D0D7F8E03003F029
:104730008003002B03D0786800F059F915E0D7F812
:10474000E43003F04003002B0FD0D7F8E03003F043
:104750004003002B09D0786800F098F900BF04E00E
:1047600000BF02E000BF00E000BFE837BD4680BDEB
:1047700080B483B000AF786000BF0C37BD465DF8F1
:10478000047B704780B483B000AF786000BF0C3703
:10479000BD465DF8047B704780B483B000AF78609D
:1047A0000B467B8000BF0C37BD465DF8047B70472D
:1047B00080B590B000AFF860B9603B601346FB7104
:1047C00050E0BB6CB3F1FF3F4CD0BB6C002B07D06B
:1047D000FCF724FC02463B68D21ABB6C9A4241D9D2
:1047E000FB681B680C33BB62BB6A53E8003F7B620B
:1047F0007B6A23F4D073FB63FB681B680C33FA6B92
:104800007A633B63396B7A6B41E80023FB62FB6A96
:10481000002BE5D1FB681B6814337B617B6953E88F
:10482000003F3B613B6923F00103BB63FB681B68EE
:104830001433BA6B3A62FB61F9693A6A41E80023C2
:10484000BB61BB69002BE5D1FB68202283F83D20CA
:10485000FB68202283F83E20FB68002283F83C207E
:1048600003230FE0FB681B681A68BB681A40BB682B
:104870009A420CBF01230023DBB21A46FB799A420D
:104880009FD0002318464037BD4680BD80B485B018
:1048900000AFF860B9601346FB80FB68BA689A62A3
:1048A000FB68FA889A85FB68FA88DA85FB6800223B
:1048B0001A64FB68222283F83E20FB68002283F8FA
:1048C0003C20FB681B68FA681268D26842F4807268
:1048D000DA60FB681B68FA681268526942F00102EC
:1048E0005A61FB681B68FA681268D26842F02002BD
:1048F000DA60002318461437BD465DF8047B704724
:1049000080B495B000AF78607B681B680C337B6324
:104910007B6B53E8003F3B633B6B23F49073FB647A
:104920007B681B680C33FA6C3A64FB63F96B3A6C76
:1049300041E80023BB63BB6B002BE5D17B681B68A0
:1049400014333B623B6A53E8003FFB61FB6923F091
:104950000103BB647B681B681433BA6CFA62BB62E8
:10496000B96AFA6A41E800237B627B6A002BE5D1D1
:104970007B681B6B012B19D17B681B680C33FB60B8
:10498000FB6853E8003FBB60BB6823F010037B6407
:104990007B681B680C337A6CBA617B617969BA6990
:1049A00041E800233B613B69002BE5D17B68202275
:1049B00083F83E207B6800221A6300BF5437BD464F
:1049C0005DF8047B704780B584B000AF78607B6889
:1049D0009B6BFB60FB680022DA85FB680022DA84AF
:1049E000F868FFF7CFFE00BF1037BD4680BD80B42A
:1049F00085B000AF78607B6893F83D30DBB2212B47
:104A00003DD17B689B68B3F5805F13D17B681B69E0
:104A1000002B0FD17B681B6AFB607B681B68FA6800
:104A20001288C2F308025A607B681B6A9A1C7B6872
:104A30001A6208E07B681A687B681B6A581C7968F0
:104A400008621B7853607B68DB8C9BB2013B9BB296
:104A50007A681946D184002B0FD17B681B687A686D
:104A60001268D26822F08002DA607B681B687A687C
:104A70001268D26842F04002DA60002300E00223AC
:104A800018461437BD465DF8047B704780B582B088
:104A900000AF78607B681B687A681268D26822F081
:104AA0004002DA607B68202283F83D207868FFF7B7
:104AB0005FFE002318460837BD4680BD80B58CB028
:104AC00000AF78607B6893F83E30DBB2222B40F079
:104AD000AB807B689B68B3F5805F17D17B681B69EF
:104AE000002B13D10023FB627B689B6ABB627B684F
:104AF0001B685B689BB2C3F308039AB2BB6A1A8057
:104B00007B689B6A9A1C7B689A6226E07B689B6A3A
:104B1000FB620023BB627B689B68B3F5805F07D0B4
:104B20007B689B68002B0AD17B681B69002B06D130
:104B30007B681B685B68DAB2FB6A1A7008E07B6806
:104B40001B685B68DBB203F07F03DAB2FB6A1A70A2
:104B50007B689B6A5A1C7B689A627B68DB8D9BB280
:104B6000013B9BB27A681946D185002B5AD17B68EC
:104B70001B687A681268D26822F02002DA607B68CB
:104B80001B687A681268D26822F48072DA607B68E7
:104B90001B687A681268526922F001025A617B68C8
:104BA000202283F83E207B681B6B012B35D17B686C
:104BB00000221A637B681B680C337B617B6953E8B6
:104BC000003F3B613B6923F010037B627B681B68FD
:104BD0000C337A6A3A62FB61F9693A6A41E8002368
:104BE000BB61BB69002BE5D17B681B681B6803F0C8
:104BF0001003102B0AD10023FB607B681B681B6825
:104C0000FB607B681B685B68FB60FB687B689B8D57
:104C100019467868FFF7C0FD02E0786802F0AEFA46
:104C2000002302E0002300E0022318463037BD468F
:104C300080BD00002DE9F04F91B000AF78637B6B31
:104C400019687B6B1B681B6923F440527B6BDB6824
:104C500013430B617B6B9A687B6B1B691A437B6BFD
:104C60005B691A437B6BDB691343BB637B6B19681E
:104C70007B6B1B68DB6823F4164222F00C02BB6BD3
:104C80001343CB607B6B19687B6B1B685B6923F4F8
:104C900040727B6B9B6913434B617B6B1A68BA4B09
:104CA0009A4204D07B6B1A68B84B9A4203D1FDF745
:104CB000FBFDF86302E0FDF7E3FDF8637B6BDB6966
:104CC000B3F5004F40F0A7807B6B1A68BA62FB6BAC
:104CD00019464FF000020B461446DB1844EB04045F
:104CE0005B1844EB0204E0007861786940EA537095
:104CF0007861DB003B61D7E904345D1844EB0206C0
:104D0000284631467B6B5B684FF00004DB1844EBB0
:104D100004041A462346FBF793FF03460C461A4643
:104D20009B4BA3FB02235B091E01FB6B19464FF053
:104D300000020B461446DB1844EB04045B1844EBFA
:104D400002044FEAC40B4BEA537B4FEAC30A5346B3
:104D50005C4613EB010A44EB020B504659467B6B51
:104D60005B684FF00004DB1844EB04041A4623464A
:104D7000FBF766FF03460C461A46854BA3FB02135E
:104D80005B09642101FB03F3D31ADB003233804A51
:104D9000A2FB03235B095B0003F4F8731E44FB6B67
:104DA00019464FF000020B461446DB1844EB04048E
:104DB0005B1844EB02044FEAC40949EA53794FEA0D
:104DC000C30843464C4613EB010844EB0209404636
:104DD00049467B6B5B684FF00004DB1844EB04042E
:104DE0001A462346FBF72CFF03460C461A46684B2F
:104DF000A3FB02135B09642101FB03F3D31ADB005D
:104E00003233634AA2FB03235B0903F007033344F5
:104E1000BA6A9360B3E07B6B1B683B61FB6B19461E
:104E20004FF000020B461446DB1844EB04045B18F9
:104E300044EB0204E60046EA5376DD002B46344696
:104E40005D1844EB0206284631467B6B5B684FF0E9
:104E50000004A500FD62FD6A45EA9375FD629C00B1
:104E6000BC62D7E90A23FBF7EBFE03460C461A4661
:104E7000474BA3FB02135B091D01FB6B19464FF067
:104E800000020B461446DB1844EB04045B1844EBA9
:104E90000204E000F860F86840EA5370F860D80057
:104EA000B860D7E9023413EB010844EB020940462D
:104EB00049467B6B5B684FF00004A6007E627E6A09
:104EC00046EA93767E629C003C62D7E90823FBF7B2
:104ED000B7FE03460C461A462D4BA3FB02135B0993
:104EE000642101FB03F3D31A1B013233284AA2FBCE
:104EF00003135B0903F0F0031D44FB6B19464FF0ED
:104F000000020B461446DB1844EB04045B1844EB28
:104F10000204E0007860786840EA53707860D80056
:104F2000386097E8180013EB010844EB020940468B
:104F300049467B6B5B684FF00004A600FE61FE698A
:104F400046EA9376FE619C00BC61D7E90623FBF735
:104F500077FE03460C461A460D4BA3FB02135B0972
:104F6000642101FB03F3D31A1B013233084AA2FB6D
:104F700003135B0903F00F032B443A69936000BFEE
:104F80004437BD46BDE8F08F0010014000140140D9
:104F90001F85EB5180B485B000AF0346FB80002332
:104FA000FB60B7F90630842B05D0B7F90620FB6803
:104FB00013440333FB60FB6818461437BD465DF8A5
:104FC000047B704780B500AF00F086FD00231846D3
:104FD00080BDF0B589B004AF786039607B685B69EB
:104FE000002B20D07B689B69002B1CD07B685C6801
:104FF0007B681D687B681E697B68B3F908301846BA
:10500000FFF7C8FF01467B685B697A689269029284
:10501000019300913B6832462946204600F099FBF7
:105020000346FB601CE07B685C687B681D687B68EE
:105030001B699EB27B68B3F908301846FFF7AAFFD8
:10504000024607F10C03019300923B683246294661
:10505000204600F0D8FB0346012B01D0002300E0DE
:10506000FB6818461437BD46F0BD80B584B000AF6C
:1050700078607B68FB60FB68002B01D0FB6800E078
:105080000123184600F0F4FC002318461037BD46F3
:1050900080BD80B483B000AF78607B6803F1080204
:1050A0007B685A607B684FF0FF329A607B6803F13F
:1050B00008027B68DA607B6803F108027B681A618A
:1050C0007B6800221A6000BF0C37BD465DF8047B88
:1050D000704780B483B000AF78607B6800221A61AB
:1050E00000BF0C37BD465DF8047B704780B485B0C7
:1050F00000AF786039607B685B68FB603B68FA688A
:105100005A60FB689A683B689A60FB689B683A68DB
:105110005A60FB683A689A603B687A681A617B68F3
:105120001B685A1C7B681A6000BF1437BD465DF8C7
:10513000047B704780B485B000AF786039603B680D
:105140001B68BB60BB68B3F1FF3F03D17B681B6981
:10515000FB600CE07B680833FB6002E0FB685B6887
:10516000FB60FB685B681A68BB689A42F6D9FB680B
:105170005A683B685A603B685B683A689A603B686B
:10518000FA689A60FB683A685A603B687A681A6104
:105190007B681B685A1C7B681A6000BF1437BD46C9
:1051A0005DF8047B704780B485B000AF78607B68A1
:1051B0001B69FB607B685B687A6892689A607B68B1
:1051C0009B687A6852685A60FB685A687B689A42A2
:1051D00003D17B689A68FB685A607B6800221A6179
:1051E000FB681B685A1EFB681A60FB681B68184640
:1051F0001437BD465DF8047B7047000080B485B06D
:1052000000AFF860B9607A60FB68043BFB60FB6844
:105210004FF080721A60FB68043BFB60BB6823F0B0
:105220000102FB681A60FB68043BFB600C4AFB68E8
:105230001A60FB68143BFB607A68FB681A60FB68C5
:10524000043BFB60FB686FF002021A60FB68203BC6
:10525000FB60FB6818461437BD465DF8047B704759
:105260006552000880B485B000AF00237B60114B0D
:105270001B68B3F1FF3F09D04FF0500383F311884F
:10528000BFF36F8FBFF34F8FFB60FEE74FF050030C
:1052900083F31188BFF36F8FBFF34F8FBB6000BFE5
:1052A0007B68002BFCD000BF1437BD465DF8047B43
:1052B000704700BF08000020000000000000000050
:1052C000074B19680868B0E8F04F80F30988BFF30E
:1052D0006F8F4FF0000080F311887047AFF30080AC
:1052E000B006002000BF00BF08480068006880F3D7
:1052F00008884FF0000080F3148862B661B6BFF3EF
:105300004F8FBFF36F8F00DF00BF00BF08ED00E0DD
:1053100080B586B000AF444B1B68444A934209D124
:105320004FF0500383F31188BFF36F8FBFF34F8F9C
:105330003B61FEE73C4B1B683D4A934209D14FF06D
:10534000500383F31188BFF36F8FBFF34F8FFB6060
:10535000FEE7384B7B617B691B78DBB27B607B6946
:10536000FF221A707B691B78DBB2FB70FB78DBB223
:1053700003F05003DAB2304B1A70304B07221A6038
:1053800009E02E4B1B68013B2C4A1360FB78DBB213
:105390005B00DBB2FB70FB78DBB203F08003802B99
:1053A000EFD0264B1B68C3F10703042B09D04FF045
:1053B000500383F31188BFF36F8FBFF34F8FBB6030
:1053C000FEE71E4B1B681B021C4A13601B4B1B682D
:1053D00003F4E063194A13607B68DAB27B691A70E0
:1053E000174A174B1B6843F470031360144A144B9D
:1053F0001B6843F07043136000F0D6F8114B002295
:105400001A6000F0F5F8104A0F4B1B6843F0404358
:105410001360FFF769FF00F01FFDFFF723FF002374
:1054200018461837BD4680BD00ED00E071C20F413F
:1054300070C20F4100E400E0A0060020A406002096
:1054400020ED00E00800002034EF00E080B483B0DD
:1054500000AF4FF0500383F31188BFF36F8FBFF39A
:105460004F8F7B600E4B1B6801330D4A13600C4B52
:105470001B68012B0ED10B4B1B68DBB2002B09D034
:105480004FF0500383F31188BFF36F8FBFF34F8F3B
:105490003B60FEE700BF0C37BD465DF8047B7047FC
:1054A0000800002004ED00E080B483B000AF114B91
:1054B0001B68002B09D14FF0500383F31188BFF311
:1054C0006F8FBFF34F8F7B60FEE70A4B1B68013B7A
:1054D000084A1360074B1B68002B04D100233B6074
:1054E0003B6883F3118800BF0C37BD465DF8047B31
:1054F000704700BF0800002000000000000000000E
:10550000EFF30980BFF36F8F154B1A681EF0100F71
:1055100008BF20ED108A20E9F04F10602DE9090046
:105520004FF0500080F31188BFF34F8FBFF36F8FA0
:1055300000F092FC4FF0000080F3118809BC19685C
:105540000868B0E8F04F1EF0100F08BFB0EC108AEA
:1055500080F30988BFF36F8F704700BFAFF30080FF
:10556000B006002000BF00BF80B582B000AF4FF092
:10557000500383F31188BFF36F8FBFF34F8F7B60AE
:1055800000F0B2FB0346002B03D0064B4FF08052D5
:105590001A6000233B603B6883F3118800BF083723
:1055A000BD4680BD04ED00E080B400AF0B4B00228F
:1055B0001A600B4B00221A600A4A0B4B1B680B49FE
:1055C000A1FB03139B09013B1360044B07221A60E4
:1055D00000BFBD465DF8047B704700BF10E000E0EF
:1055E00018E000E014E000E010000020D34D62104D
:1055F000DFF80C00016841F470010160704700BFE2
:1056000088ED00E080B584B000AF78603960244B4D
:105610001B68002B0ED1234BA3F58063224A9B1AF3
:10562000224A13601F4BA3F580631F4A9B1A1A4638
:105630001B4B1A6000F03CFD0346012B01D16B4669
:1056400000E01B4BFB6000F0A5FA1A4B1A683B68A0
:105650001A44FB689A4207D97B680C221A6000F052
:10566000A7FA4FF0FF3317E0124B1B68BB60114BDA
:105670001A683B6813440F4A13600C4B1A683B6866
:10568000D31A0A4A13600C4B1A683B6813440A4A3F
:10569000136000F08DFABB6818461037BD4680BD18
:1056A000C80B00200000022074100020A806002073
:1056B00000FC01200C000020AC06002080B586B064
:1056C00000AF7860EFF305833B613B69002B02D1AB
:1056D0000023FB6001E00123FB60FB68002B14BF8B
:1056E00001230023FB75FB7D002B09D04FF05003F5
:1056F00083F31188BFF36F8FBFF34F8FBB60FEE75B
:1057000000F048FA00BF1837BD4680BD80B582B0B2
:1057100000AF786000F04CFA00BF0837BD4680BD8E
:1057200080B584B000AF7860786803F0C5FD0346AB
:10573000FB60FB6818461037BD4680BD80B582B05F
:1057400000AF7860786803F0BFFD00BF0837BD4642
:1057500080BD80B58EB004AFF860B9607A603B6000
:105760007B6B002B09D14FF0500383F31188BFF3FB
:105770006F8FBFF34F8F3B62FEE7BB6B002B09D1EE
:105780004FF0500383F31188BFF36F8FBFF34F8F38
:10579000FB61FEE754233B613B69542B09D04FF07A
:1057A000500383F31188BFF36F8FBFF34F8FBB613B
:1057B000FEE73B69BB6B002B1ED07B6B002B1BD025
:1057C000BB6B7B627B6A7A6B1A637B6A022283F80B
:1057D0005120002303937B6A029307F11403019382
:1057E0003B6B00933B687A68B968F86800F050F842
:1057F000786A00F0D3F801E000237B617B691846EA
:105800002837BD4680BD80B58CB004AFF860B96064
:105810003B601346FB80FB889B001846FFF780FF28
:1058200078617B69002B0ED05420FFF779FFF86177
:10583000FB69002B03D0FB697A691A6305E078697C
:10584000FFF77CFF01E00023FB61FB69002B17D011
:10585000FB69002283F85120FA8800230393FB6937
:105860000293FB6A0193BB6A00933B68B968F868CE
:1058700000F00EF8F86900F091F80123BB6102E036
:105880004FF0FF33BB61BB6918462037BD4680BD72
:1058900080B588B000AFF860B9607A603B603B6B60
:1058A0001A6B7B6803F18043013B9B001344BB618F
:1058B000BB6923F00703BB61BB6903F00703002B3F
:1058C00009D04FF0500383F31188BFF36F8FBFF3FC
:1058D0004F8F7B61FEE7BB68002B1FD00023FB616D
:1058E00012E0BA68FB69134419783A6BFB691344F8
:1058F00034330A461A70BA68FB6913441B78002BCC
:1059000006D0FB690133FB61FB690F2BE9D900E08D
:1059100000BF3B6B002283F8432003E03B6B002277
:1059200083F83420BB6A062B01D90623BB623B6B8C
:10593000BA6ADA623B6BBA6A5A643B6B00229A64B9
:105940003B6B04331846FFF7C4FB3B6B1833184618
:10595000FFF7BFFB3B6B3A6B1A61BB6AC3F10702EF
:105960003B6B9A613B6B3A6B5A623B6B0022DA6489
:105970003B6B002283F850203A68F968B869FFF75A
:105980003DFC02463B6B1A60FB6A002B02D0FB6AAF
:105990003A6B1A6000BF2037BD4680BD80B582B02B
:1059A00000AF7860FFF752FD2A4B1B680133294A8C
:1059B0001360294B1B68002B09D1274A7B681360B1
:1059C000244B1B68012B10D100F0B8FA0DE0234BDB
:1059D0001B68002B09D1204B1B68DA6A7B68DB6AE5
:1059E0009A4202D81C4A7B6813601D4B1B68013326
:1059F0001B4A13607B68DB6A01229A40194B1B68C3
:105A00001343184A13607B68DA6A13469B001344F9
:105A10009B00154A1A447B68043319461046FFF769
:105A200065FBFFF741FD0D4B1B68002B0ED00A4BA9
:105A30001B68DA6A7B68DB6A9A4207D20B4B4FF02D
:105A400080521A60BFF34F8FBFF36F8F00BF0837CC
:105A5000BD4680BDB0070020B0060020BC07002076
:105A6000CC070020B8070020B406002004ED00E0B9
:105A700080B584B000AF78600023FB607B68002BAA
:105A800016D0134B1B68002B09D04FF0500383F343
:105A90001188BFF36F8FBFF34F8FBB60FEE700F03D
:105AA00079F80021786800F021FB00F081F8F860B7
:105AB000FB68002B07D1074B4FF080521A60BFF3F1
:105AC0004F8FBFF36F8F00BF1037BD4680BD00BF43
:105AD000D807002004ED00E080B58AB004AF0023B1
